:020000040000FA
:100000000C9462000C948A000C948A000C944F07A4
:100010000C944F070C944F070C948A000C948A00A0
:100020000C948A000C948A000C948A000C94590752
:100030000C948A000C948A000C948A000C948A0018
:100040000C9405070C948A000C94D3060C94AD060E
:100050000C948A000C948A000C948A000C948A00F8
:100060000C948A000C948A000000000024002700F1
:100070002A0000000000250028002B0000000000DE
:1000800023002600290004040404040404040202DA
:100090000202020203030303030301020408102007
:1000A0004080010204081020010204081020000012
:1000B0000008000201000003040700000000000027
:1000C0000000150811241FBECFEFD8E0DEBFCDBF62
:1000D00011E0A0E0B1E0E2E1F7E102C005900D928D
:1000E000AC3EB107D9F723E0ACEEB1E001C01D9200
:1000F000A135B207E1F710E0C2E6D0E004C02197D5
:10010000FE010E94780BC136D107C9F70E94EA08A8
:100110000C94870B0C940000CF92DF92EF92FF9229
:10012000DC01A03282E0B807D4F5A53BB10514F09C
:10013000A4EBB0E040914F0328E830E0241B3109E4
:1001400047FD3395220F331F220F331F6901330FF1
:10015000EE08FF084091500328E532E0241B3109E6
:1001600047FD3395220F331F220F331F032E000C40
:10017000440B550B2C193D094E095F09B7FF02C00E
:10018000B0E0A0E00E94330B24EB30E040E050E010
:100190000E94090BC20ED31EE41EF51ED601E0918B
:1001A0004E03EC3080F520914F0388E890E0821BED
:1001B000910927FD9395880F991F880F991FA817FC
:1001C000B90784F02091500388E592E0821B9109E1
:1001D00027FD9395880F991F880F991FA817B907B6
:1001E0000CF4CD010297880F991F4FB7F8942E2F6A
:1001F00030E0F901EE0FFF1FE20FF31FEE55FD4F48
:10020000928381834FBFFF90EF90DF90CF9008954E
:1002100096E0899FD0011124A953BD4F90967C93FD
:100220006E935F9791E091969C939197E091340340
:10023000F091350390913303992339F0309751F0C1
:10024000811108C08091E3020994309719F05C96FF
:100250008C91FACF0895CF92DF92EF92FF920F9395
:100260001F9396E0899FF0011124E953FD4F11A2DD
:10027000278D30A12130310551F178F02230310540
:1002800009F451C02330310509F452C01F910F9178
:10029000FF90EF90DF90CF9008956623B9F361E06F
:1002A00070E00E9408012FB7F894809101029091AC
:1002B0000202A0910302B09104022FBF80931F039A
:1002C00090932003A0932103B0932203DFCF9FB725
:1002D000F894C0900102D0900202E0900302F090E6
:1002E00004029FBF00911F0310912003209121035E
:1002F00030912203C01AD10AE20AF30A00913103B5
:100300001091320330E020E00C151D052E053F054D
:1003100050F462E070E01F910F91FF90EF90DF903A
:10032000CF900C9408016111B1CF63E070E0F3CF7E
:1003300070E060E0F0CFAF92BF92CF92DF92EF9289
:10034000FF920F931F93CF93DF936C017B018B017F
:10035000040F151FEB015E01AE18BF08C017D107CF
:1003600059F06991D601ED91FC910190F081E02D59
:10037000C6010995892B79F7C501DF91CF911F91AE
:100380000F91FF90EF90DF90CF90BF90AF900895C6
:10039000FC01538D448D252F30E0842F90E0821B8B
:1003A000930B541710F0CF96089501970895FC0110
:1003B000918D828D981761F0A28DAE0FBF2FB11D68
:1003C0005D968C91928D9F5F9F73928F90E00895C0
:1003D0008FEF9FEF0895FC01918D828D981731F07A
:1003E000828DE80FF11D858D90E008958FEF9FEFCE
:1003F0000895FC01918D228D892F90E0805C9F4FA4
:10040000821B91098F739927089585E092E00E94DD
:10041000F90121E0892B09F420E0822F089580E082
:1004200090E0892B29F00E94050281110C940000B4
:100430000895FC01A48DA80FB92FB11DA35ABF4F79
:100440002C91848D90E001968F739927848FA689D3
:10045000B7892C93A089B1898C91837080648C9327
:10046000938D848D981306C00288F389E02D8081D6
:100470008F7D80830895EF92FF920F931F93CF9308
:10048000DF93EC0181E0888F9B8D8C8D98131AC0CF
:10049000E889F989808185FF15C09FB7F894EE89B6
:1004A000FF896083E889F989808183708064808313
:1004B0009FBF81E090E0DF91CF911F910F91FF905E
:1004C000EF900895F62E0B8D10E00F5F1F4F0F7306
:1004D0001127E02E8C8D8E110CC00FB607FCFACFC1
:1004E000E889F989808185FFF5CFCE010E94190244
:1004F000F1CFEB8DEC0FFD2FF11DE35AFF4FF08292
:100500009FB7F8940B8FEA89FB8980818062CFCFF7
:10051000CF93DF93EC01888D8823B9F0AA89BB893A
:10052000E889F9898C9185FD03C0808186FD0DC025
:100530000FB607FCF7CF8C9185FFF2CF808185FF46
:10054000EDCFCE010E941902E9CFDF91CF9108953E
:10055000833081F028F4813099F08230A9F0089539
:100560008730A9F08830C9F08430B1F480918000E0
:100570008F7D03C0809180008F77809380000895E5
:1005800084B58F7784BD089584B58F7DFBCF80912E
:10059000B0008F778093B00008958091B0008F7D78
:1005A000F9CFCF93DF93282F30E0F901E255FF4FC9
:1005B0008491F901E656FF4FD491F901EA57FF4FB4
:1005C000C491CC23A1F081110E94A802EC2FF0E08D
:1005D000EE0FFF1FE458FF4FA591B491EC91ED236E
:1005E00081E090E009F480E0DF91CF91089580E010
:1005F00090E0FACF862F0C94D1021F93CF93DF9314
:10060000282F30E0F901E255FF4F8491F901E656B9
:10061000FF4FD491F901EA57FF4FC491CC23A9F0C1
:10062000162F81110E94A802EC2FF0E0EE0FFF1FA1
:10063000EE58FF4FA591B4918FB7F894EC9111113A
:1006400008C0D095DE23DC938FBFDF91CF911F913F
:100650000895DE2BF8CF862F642F0C94FD02CF93E4
:10066000DF9390E0FC01E656FF4F24918A579F4F9D
:10067000FC0184918823C9F090E0880F991FFC0148
:10068000E859FF4FA591B491FC01EE58FF4FC59179
:10069000D49161110DC09FB7F8948C91209582235D
:1006A0008C938881282328839FBFDF91CF91089561
:1006B000623051F49FB7F8943C91822F8095832348
:1006C0008C93E8812E2BEFCF8FB7F894EC912E2BE3
:1006D0002C938FBFEACF862F642F0C942F036F9239
:1006E0007F928F929F92AF92BF92CF92DF92EF92C2
:1006F000FF920F931F93CF93DF9381E08093330397
:100700008FB7F89440910102509102026091030268
:10071000709104028FBF8091230390912403A091D4
:100720002503B0912603481B590B6A0B7B0B809164
:100730002F0390913003B0E0A0E084179507A6073F
:10074000B70708F01DC1C0E080912D03C81760F401
:10075000E0912903F0912A03EC0FF11D62E0808102
:100760000E942F03CF5FF0CF712C812C912C54016C
:10077000839480912E03781608F05FC0072D10E057
:10078000E0912B03F0912C03E00FF11F61E08081D9
:100790000E942F03E0912B03F0912C03E00FF11F37
:1007A00060E080810E94FD02D501C401072C04C0D5
:1007B000880F991FAA1FBB1F0A94D2F76C017C01F6
:1007C000E094F094612C80912D036816F8F4C62D06
:1007D000D0E0E0912903F0912A03EC0FFD1F808106
:1007E0000E94D1022496CC0FDD1FC953DD4F892B07
:1007F00041F4888199818C299D2999838883639408
:10080000E2CF888199818E219F21F7CFE0912B0340
:10081000F0912C03E00FF11F61E080810E94FD0246
:1008200080912B0390912C03080F191F60E0F801B1
:1008300080810E942F0373949CCFC7ECD2E0FE010D
:100840008FEF9FEF278D30A1232B21F4148E968FED
:10085000858F11A2369623E0E330F20799F7F12C49
:1008600096E0D92E80912D03F81608F050C0E12CA7
:100870000F2D10E0000F111F01531D4F20912E036B
:10088000E21608F042C0F801608171810E2C02C0AE
:10089000769567950A94E2F7F29E900111242E0D49
:1008A000311DE7ECF2E080E0458D568D24173507C9
:1008B00009F46AC08F5F36968A30B1F760FF23C0B3
:1008C000E7ECF2E090E080E0448D411117C0E09148
:1008D0002703F0912803E20FF31F4081D89EF00117
:1008E000D99EF00D1124E953FD4F448F368F258F8B
:1008F00010A2178E61E00E942B0105C0019636966A
:100900008A30910509F7E394B9CFF394ABCF80E037
:1009100099A19111892F2696F3E0C330DF07C1F723
:100920009FB7F89440910102509102026091030236
:10093000709104029FBF409323035093240360935C
:100940002503709326038823D9F08091E802882339
:10095000B9F08091E6029091E702019789F48091C5
:10096000E302DF91CF911F910F91FF90EF90DF9005
:10097000CF90BF90AF909F908F907F906F90089591
:100980001092330380E0EDCF6170B5CF3FB7F8949C
:100990008091F0019091F101A091F201B091F301E9
:1009A00026B5A89B05C02F3F19F00196A11DB11DCA
:1009B0003FBFBA2FA92F982F8827BC01CD01620F06
:1009C000711D811D911D42E0660F771F881F991FC1
:1009D0004A95D1F708958F929F92AF92BF92CF928E
:1009E000DF92EF92FF924B015C010E94C6046B0103
:1009F0007C010E94C6046C197D098E099F09683E1E
:100A0000734081059105A8F321E0821A9108A1089D
:100A1000B10888EEC80E83E0D81EE11CF11C8114D9
:100A20009104A104B10429F7FF90EF90DF90CF90DB
:100A3000BF90AF909F908F900895089590E080E0D0
:100A40000895CF93DF931092F5011092F401C091B5
:100A5000F401D091F501C53BD1057CF4CE010E9493
:100A60008C006FE070E080E090E00E94EB0425963F
:100A7000D093F501C093F401EACFDF91CF910895AF
:100A8000FB0101900020E9F73197AF01461B570B9E
:100A9000DC01ED91FC910280F381E02D0994CF936C
:100AA000DF93BC0185E092E00E944005EC0163E425
:100AB00071E085E092E00E9440058C0F9D1FDF9160
:100AC000CF910895CF93DF93EC0160E08E810E9477
:100AD000FD0261E08E810E94FD0260E08E810E9435
:100AE000FD028BE891E00197F1F7DF91CF91089536
:100AF000CF92DF92EF92FF920F931F93CF93DF93EA
:100B00006C017C0187E0E80EF11CD0E0C0E0062F0C
:100B100010E0B8010C2E02C0759567950A94E2F7B3
:100B20006170F70181917F010E94FD022196C4301E
:100B3000D10579F7C601DF91CF911F910F91FF90F9
:100B4000EF90DF90CF900C946205CF92DF92EF92FE
:100B5000FF920F931F93CF93DF93EC01F62E642F38
:100B60008C810E94FD028D818F3F19F060E00E9410
:100B7000FD020F2D10E08F8584FF25C06E0187E0F8
:100B8000C80ED11CF12CE12CB8010E2C02C07595B9
:100B900067950A94E2F76170F60181916F010E94F6
:100BA000FD02FFEFEF1AFF0A88E0E816F10461F793
:100BB000CE01DF91CF911F910F91FF90EF90DF90C9
:100BC000CF900C946205B80184E0759567958A957D
:100BD000E1F7CE010E9478056F2DCE01DF91CF9114
:100BE0001F910F91FF90EF90DF90CF900C947805BC
:100BF00040E0682F86E393E00C94A50581E00E9415
:100C0000F8058BE39FE10197F1F70895CF93DF9308
:100C1000823029F490914503986090934503809326
:100C2000490310924A0380E480934B0380E1809350
:100C30004C0380E580934D0361E080913A030E946C
:100C40002F0380913B038F3F19F061E00E942F0337
:100C500061E080913C030E942F03C6E3D3E09E0134
:100C6000265333408091450384FD0BC084E090E01F
:100C700021962817390744F461E08E810E942F03E2
:100C8000EECF88E090E0F4CF8BE39DE00197F1F7A1
:100C900060E080913A030E94FD0260E080913C0395
:100CA0000E94FD0280913B038F3F19F060E00E949B
:100CB000FD028091450384FD34C063E086E393E048
:100CC0000E947805CBE4D6E4CE010197F1F763E00A
:100CD00086E393E00E9478052197F1F763E086E3CD
:100CE00093E00E94780583E592E00197F1F762E0D6
:100CF00086E393E00E9478058091450380620E941C
:100D0000F80584E0809346038CE00E94F8050E9479
:100D1000FE0582E08093470386E0DF91CF910C943B
:100D2000F80580620E94F8058BE496E40197F1F7DC
:100D30008091450380620E94F80583E592E0019767
:100D4000F1F78091450380620E94F805D5CF41E01C
:100D50000E94A50581E090E008951F920F920FB6C2
:100D60000F9211242F933F934F935F936F937F9331
:100D70008F939F93AF93BF93EF93FF9385E092E0A0
:100D80000E941902FF91EF91BF91AF919F918F91B6
:100D90007F916F915F914F913F912F910F900FBE77
:100DA0000F901F9018951F920F920FB60F9211245B
:100DB0002F938F939F93EF93FF93E0911502F09100
:100DC00016028081E0911B02F0911C0282FD1BC083
:100DD000908180911E028F5F8F7320911F02821776
:100DE00041F0E0911E02F0E0EB5FFD4F958F8093A4
:100DF0001E02FF91EF919F918F912F910F900FBE47
:100E00000F901F9018958081F4CF1F920F920FB60C
:100E10000F9211242F933F938F939F93AF93BF9380
:100E20008091010290910202A0910302B09104020C
:100E30003091EF0123E0230F2D3758F50196A11DC6
:100E4000B11D2093EF018093010290930202A093C1
:100E50000302B09304028091F0019091F101A091FE
:100E6000F201B091F3010196A11DB11D8093F00133
:100E70009093F101A093F201B093F301BF91AF9170
:100E80009F918F913F912F910F900FBE0F901F90C8
:100E9000189526E8230F0296A11DB11DD2CF1F92EF
:100EA0000F920FB60F9211240F900FBE0F901F904C
:100EB00018951F920F920FB60F9211242F933F9304
:100EC0004F935F936F937F938F939F93AF93BF9352
:100ED000CF93DF93EF93FF938091EC01C091C60213
:100EE000D0E087FF24C0109285001092840080918A
:100EF000EC018F5F8093EC018091EC01082E000CD7
:100F0000990B8C179D0724F48091EC018C30C4F16F
:100F10008091840090918500049680349C4908F467
:100F20007AC08091840090918500049676C080916B
:100F3000EC01082E000C990B8C179D07C4F6E0916C
:100F4000EC018E2FEE0F990BFC01EE0FFF1FE80F47
:100F5000F91FEE55FD4F808186FFC9CFE091EC016E
:100F60008E2FEE0F990BFC01EE0FFF1FE80FF91FFC
:100F7000EE55FD4F808160E08F730E94FD02B7CF78
:100F80002091840030918500E091EC018E2FEE0FCE
:100F9000990BFC01EE0FFF1FE80FF91FEE55FD4FF7
:100FA00081819281820F931F9093890080938800A2
:100FB000E091EC018E2FEE0F990BFC01EE0FFF1F5D
:100FC000E80FF91FEE55FD4F808186FF11C0E091BB
:100FD000EC018E2FEE0F990BFC01EE0FFF1FE80FB7
:100FE000F91FEE55FD4F808161E08F730E94FD0275
:100FF000FF91EF91DF91CF91BF91AF919F918F9131
:101000007F916F915F914F913F912F910F900FBE04
:101010000F901F90189580E49CE99093890080932D
:1010200088008FEF8093EC01E3CF109208021092BA
:10103000070288EE93E0A0E0B0E08093090290936D
:101040000A02A0930B02B0930C028FE191E09093FF
:1010500006028093050285EC90E090931202809343
:10106000110284EC90E0909314028093130280ECC0
:1010700090E0909316028093150281EC90E090939B
:1010800018028093170282EC90E090931A028093EA
:10109000190286EC90E090931C0280931B02109240
:1010A0001E0210921F0210922002109221028091C3
:1010B000C6028C3008F08AC091E0980F9093C60267
:1010C00080934E0390E0FC01EE0FFF1FE80FF91F25
:1010D000EE55FD4F88EB9BE092838183109239039C
:1010E000109238038BE391E090933703809336039B
:1010F0008EE080933A038FEF80933B038FE08093E1
:101100003C0380E180933D0381E180933E0382E1D3
:1011100080933F0383E18093400310924103109238
:10112000420310924303109244031092450381E05E
:101130000E9406061092C9021092CD021092CC02B3
:101140001092CE0281E391E09093C8028093C7028F
:10115000E3EEF2E01082148213821582369683E069
:10116000EF31F807B9F78BE091E090932A03809371
:10117000290388E091E090932C0380932B0384E073
:1011800080932D0383E080932E038FE091E0909372
:101190002803809327038AE090E0909330038093A4
:1011A0002F0384EF91E090933203809331031092E8
:1011B00035031092340310922303109224031092EB
:1011C0002503109226031092330308958FEF809326
:1011D0004E0384CF789484B5826084BD84B58160E9
:1011E00084BD85B5826085BD85B5816085BD8091F2
:1011F0006E00816080936E0010928100809181006A
:101200008260809381008091810081608093810061
:10121000809180008160809380008091B100846023
:101220008093B1008091B00081608093B000809184
:101230007A00846080937A0080917A008260809343
:101240007A0080917A00816080937A0080917A00A0
:10125000806880937A001092C10080914E038C3098
:1012600008F051C061E089E00E942F0380914E0395
:10127000282F30E0F901EE0FFF1FE20FF31FEE55AC
:10128000FD4F9081907C9960908310924F03109253
:1012900050032CE0622F0E946C0B829FB00111243E
:1012A00030E020E0AB01420F531FFA01EE0FFF1FA9
:1012B000E40FF51FEE55FD4F908196FD16C02F5F90
:1012C0003F4F2C30310571F781110FC01092800013
:1012D00082E0809381001092850010928400B19A80
:1012E00080916F00826080936F00E0914E038E2F9B
:1012F00090E0FC01EE0FFF1FE80FF91FEE55FD4FC8
:101300008081806480830E94210561E08DE00E94DD
:101310002F0360E08AE00E942F0361E088E00E94D2
:101320002F0382E00E94060666E471E086E393E004
:101330000E944005E0914903E23008F078C0E15096
:10134000F0E0EA5CFC4F848980680E94F80564E55F
:1013500071E086E393E00E94400568EB7BE080E06B
:1013600090E00E94EB040E94FE05E0911502F091CE
:10137000160282E08083E0911102F0911202108245
:10138000E0911302F09114028FEC808310921D0201
:10139000E0911902F0911A0286E08083E091170231
:1013A000F0911802808180618083E0911702F091B2
:1013B0001802808188608083E0911702F091180202
:1013C000808180688083E0911702F091180280810B
:1013D0008F7D808300E010E0DD24D39484EBE82E41
:1013E000F12C80910701811124C00E946F0380932A
:1013F0000002833291F40E94FE050E94210565E6F9
:1014000071E086E393E00E94400568EB7BE080E0BA
:1014100090E00E94EB04D09207010115110509F339
:101420000E9405028823E9F20E940000DACFE1E081
:1014300087CFE1E0809149038111E0E0E195F0E0A0
:10144000EA5CFC4F848980680E94F80564E771E0DB
:1014500086E393E00E9440050E946F03B82E8093BC
:1014600000028AE00E94D1029093FF018093FE0166
:10147000BB20E9F0C090FD01CC2DD0E0CA50DE4F7A
:10148000B882E0914903E230D0F5E150F0E0EA5C47
:10149000FC4F84898C0D80680E94F80541E06881CA
:1014A00086E393E00E94A505C394C092FD0180915C
:1014B000FD01863009F04BC060E071E086EF91E0FD
:1014C0000E947E0B892B81F50E94FE05F092F501AA
:1014D000E092F401C091F401D091F501D7FD11C063
:1014E000CE010E948C006FE070E080E090E00E94EE
:1014F000EB042597D093F501C093F401EBCFE1E025
:10150000C5CF63E871E086E393E00E944005109246
:1015100007018091FD01E82FF0E0E950FE4F88239C
:10152000A1F081501292FBCF0E94FE0562E971E0AA
:1015300086E393E00E94400568EE73E080E090E06F
:101540000E94EB04D0920701E4CF1092FD0180913C
:10155000FE019091FF01019709F052C080910701AF
:10156000882309F45ACF83EA91E00E944F0568EE80
:1015700073E080E090E00E94EB0486EA91E00E9434
:101580004F0568EE73E080E090E00E94EB0489EA8A
:1015900091E00E944F0568EE73E080E090E00E94C9
:1015A000EB0486EA91E00E944F0568EE73E080E06C
:1015B00090E00E94EB0483EB91E00E944F0568EEFF
:1015C00073E080E090E00E94EB048BEC91E00E94DD
:1015D0004F0561E08DE00E94FD0260E088E00E941E
:1015E000FD020E94FE056CED71E086E393E00E942F
:1015F000400560E573EC80E090E00E94EB040DCFC5
:1016000060E08DE00E94FD0260E088E00E94FD0243
:1016100004CF052E97FB1EF400940E94200B57FD6B
:1016200007D00E943B0B07FC03D04EF40C94200B18
:1016300050954095309521953F4F4F4F5F4F0895FE
:1016400090958095709561957F4F8F4F9F4F08952E
:101650000E945D0BA59F900DB49F900DA49F800DDF
:10166000911D11240895B7FF0C94280B0E94280B9C
:10167000821B930B0895A1E21A2EAA1BBB1BFD012E
:101680000DC0AA1FBB1FEE1FFF1FA217B307E40761
:10169000F50720F0A21BB30BE40BF50B661F771FB9
:1016A000881F991F1A9469F7609570958095909599
:1016B0009B01AC01BD01CF010895A29FB001B39F72
:1016C000C001A39F700D811D1124911DB29F700D4B
:1016D000811D1124911D0895991B79E004C0991F63
:1016E000961708F0961B881F7A95C9F7809508957C
:1016F000EE0FFF1F0590F491E02D0994FB01DC0132
:101700008D91019080190110D9F3990B0895F894E7
:10171000FFCF32373534313900010506070B02039C
:10172000043132333435363738392A30230000005B
:10173000003B029B01C8018802F901D701EB0100BF
:101740000000006B032B03FA0200000000A7069BB9
:10175000011E051D050D0A002041726475696E6F3A
:1017600020446F6F72002D2D4C6F636B2050726F91
:101770006A6563742D2D00446F6F72206973204C6D
:101780006F636B656400456E74657220506173739E
:10179000776F7264002020446F6F72206973204F4E
:1017A00070656E00202057726F6E672050617373F2
:1017B000776F7264004154004F4B0041542B434DEE
:1017C00047463D310041542B434D47533D222B3971
:1017D000313938353639383536393822003E427598
:1017E00072676C617220416C6572742121004275D0
:0E17F00072676C617220416C6572742100009A
:107E0000112484B714BE81FFF0D085E080938100F7
:107E100082E08093C00088E18093C10086E0809377
:107E2000C20080E18093C4008EE0C9D0259A86E02C
:107E300020E33CEF91E0309385002093840096BBD3
:107E4000B09BFECF1D9AA8958150A9F7CC24DD24C4
:107E500088248394B5E0AB2EA1E19A2EF3E0BF2EE7
:107E6000A2D0813461F49FD0082FAFD0023811F036
:107E7000013811F484E001C083E08DD089C08234E0
:107E800011F484E103C0853419F485E0A6D080C0E4
:107E9000853579F488D0E82EFF2485D0082F10E0AE
:107EA000102F00270E291F29000F111F8ED06801E7
:107EB0006FC0863521F484E090D080E0DECF843638
:107EC00009F040C070D06FD0082F6DD080E0C81688
:107ED00080E7D80618F4F601B7BEE895C0E0D1E017
:107EE00062D089930C17E1F7F0E0CF16F0E7DF06D8
:107EF00018F0F601B7BEE89568D007B600FCFDCFD4
:107F0000A601A0E0B1E02C9130E011968C91119780
:107F100090E0982F8827822B932B1296FA010C0160
:107F200087BEE89511244E5F5F4FF1E0A038BF0790
:107F300051F7F601A7BEE89507B600FCFDCF97BE46
:107F4000E89526C08437B1F42ED02DD0F82E2BD052
:107F50003CD0F601EF2C8F010F5F1F4F84911BD097
:107F6000EA94F801C1F70894C11CD11CFA94CF0C13
:107F7000D11C0EC0853739F428D08EE10CD085E9AC
:107F80000AD08FE07ACF813511F488E018D01DD067
:107F900080E101D065CF982F8091C00085FFFCCF94
:107FA0009093C60008958091C00087FFFCCF809118
:107FB000C00084FD01C0A8958091C6000895E0E648
:107FC000F0E098E1908380830895EDDF803219F02E
:107FD00088E0F5DFFFCF84E1DECF1F93182FE3DFCA
:107FE0001150E9F7F2DF1F91089580E0E8DFEE27F6
:047FF000FF270994CA
:027FFE00040479
:00000001FF
